{
  "_format": "hh-sol-artifact-1",
  "contractName": "PulseInu",
  "sourceName": "contracts/PulseInu.sol",
  "abi": [
    {
      "inputs": [
        {
          "internalType": "string",
          "name": "_name",
          "type": "string"
        },
        {
          "internalType": "string",
          "name": "_symbol",
          "type": "string"
        },
        {
          "internalType": "uint256",
          "name": "_airdropDuration",
          "type": "uint256"
        },
        {
          "internalType": "uint256",
          "name": "_mintDuration",
          "type": "uint256"
        },
        {
          "internalType": "uint256",
          "name": "_firstAdopterPercent",
          "type": "uint256"
        },
        {
          "internalType": "uint256",
          "name": "_referrerPercent",
          "type": "uint256"
        },
        {
          "internalType": "uint256",
          "name": "_price",
          "type": "uint256"
        },
        {
          "internalType": "uint256",
          "name": "_airdropAmount",
          "type": "uint256"
        }
      ],
      "stateMutability": "nonpayable",
      "type": "constructor"
    },
    {
      "anonymous": false,
      "inputs": [
        {
          "indexed": true,
          "internalType": "address",
          "name": "owner",
          "type": "address"
        },
        {
          "indexed": true,
          "internalType": "address",
          "name": "spender",
          "type": "address"
        },
        {
          "indexed": false,
          "internalType": "uint256",
          "name": "value",
          "type": "uint256"
        }
      ],
      "name": "Approval",
      "type": "event"
    },
    {
      "anonymous": false,
      "inputs": [
        {
          "indexed": true,
          "internalType": "address",
          "name": "claimer",
          "type": "address"
        },
        {
          "indexed": true,
          "internalType": "uint256",
          "name": "amount",
          "type": "uint256"
        }
      ],
      "name": "Claimed",
      "type": "event"
    },
    {
      "anonymous": false,
      "inputs": [
        {
          "indexed": true,
          "internalType": "address",
          "name": "minter",
          "type": "address"
        },
        {
          "indexed": true,
          "internalType": "uint256",
          "name": "amount",
          "type": "uint256"
        }
      ],
      "name": "Minted",
      "type": "event"
    },
    {
      "anonymous": false,
      "inputs": [
        {
          "indexed": true,
          "internalType": "address",
          "name": "from",
          "type": "address"
        },
        {
          "indexed": true,
          "internalType": "address",
          "name": "to",
          "type": "address"
        },
        {
          "indexed": false,
          "internalType": "uint256",
          "name": "value",
          "type": "uint256"
        }
      ],
      "name": "Transfer",
      "type": "event"
    },
    {
      "inputs": [],
      "name": "INITIAL_SUPPLY",
      "outputs": [
        {
          "internalType": "uint256",
          "name": "",
          "type": "uint256"
        }
      ],
      "stateMutability": "view",
      "type": "function"
    },
    {
      "inputs": [],
      "name": "OWNER_ADDRESS",
      "outputs": [
        {
          "internalType": "address",
          "name": "",
          "type": "address"
        }
      ],
      "stateMutability": "view",
      "type": "function"
    },
    {
      "inputs": [
        {
          "internalType": "address",
          "name": "owner",
          "type": "address"
        },
        {
          "internalType": "address",
          "name": "spender",
          "type": "address"
        }
      ],
      "name": "allowance",
      "outputs": [
        {
          "internalType": "uint256",
          "name": "",
          "type": "uint256"
        }
      ],
      "stateMutability": "view",
      "type": "function"
    },
    {
      "inputs": [
        {
          "internalType": "address",
          "name": "spender",
          "type": "address"
        },
        {
          "internalType": "uint256",
          "name": "amount",
          "type": "uint256"
        }
      ],
      "name": "approve",
      "outputs": [
        {
          "internalType": "bool",
          "name": "",
          "type": "bool"
        }
      ],
      "stateMutability": "nonpayable",
      "type": "function"
    },
    {
      "inputs": [
        {
          "internalType": "address",
          "name": "account",
          "type": "address"
        }
      ],
      "name": "balanceOf",
      "outputs": [
        {
          "internalType": "uint256",
          "name": "",
          "type": "uint256"
        }
      ],
      "stateMutability": "view",
      "type": "function"
    },
    {
      "inputs": [
        {
          "internalType": "bytes32[]",
          "name": "proof",
          "type": "bytes32[]"
        }
      ],
      "name": "claimFirstAdopter",
      "outputs": [],
      "stateMutability": "nonpayable",
      "type": "function"
    },
    {
      "inputs": [
        {
          "internalType": "bytes32[]",
          "name": "proof",
          "type": "bytes32[]"
        }
      ],
      "name": "claimFreeClaimer",
      "outputs": [],
      "stateMutability": "nonpayable",
      "type": "function"
    },
    {
      "inputs": [
        {
          "internalType": "bytes32[]",
          "name": "proof",
          "type": "bytes32[]"
        },
        {
          "internalType": "uint256",
          "name": "eachPercent",
          "type": "uint256"
        }
      ],
      "name": "claimReferrer",
      "outputs": [],
      "stateMutability": "nonpayable",
      "type": "function"
    },
    {
      "inputs": [
        {
          "internalType": "address",
          "name": "",
          "type": "address"
        }
      ],
      "name": "claimed",
      "outputs": [
        {
          "internalType": "uint256",
          "name": "",
          "type": "uint256"
        }
      ],
      "stateMutability": "view",
      "type": "function"
    },
    {
      "inputs": [],
      "name": "contractInfo",
      "outputs": [
        {
          "internalType": "uint128",
          "name": "airdropEndTime",
          "type": "uint128"
        },
        {
          "internalType": "uint128",
          "name": "mintEndTime",
          "type": "uint128"
        },
        {
          "internalType": "uint32",
          "name": "firstAdopterPercent",
          "type": "uint32"
        },
        {
          "internalType": "uint32",
          "name": "referrerPercent",
          "type": "uint32"
        },
        {
          "internalType": "uint32",
          "name": "pricePINU",
          "type": "uint32"
        },
        {
          "internalType": "uint32",
          "name": "airdropAmount",
          "type": "uint32"
        }
      ],
      "stateMutability": "view",
      "type": "function"
    },
    {
      "inputs": [],
      "name": "countClaims",
      "outputs": [
        {
          "internalType": "uint256",
          "name": "",
          "type": "uint256"
        }
      ],
      "stateMutability": "view",
      "type": "function"
    },
    {
      "inputs": [],
      "name": "decimals",
      "outputs": [
        {
          "internalType": "uint8",
          "name": "",
          "type": "uint8"
        }
      ],
      "stateMutability": "pure",
      "type": "function"
    },
    {
      "inputs": [
        {
          "internalType": "address",
          "name": "spender",
          "type": "address"
        },
        {
          "internalType": "uint256",
          "name": "subtractedValue",
          "type": "uint256"
        }
      ],
      "name": "decreaseAllowance",
      "outputs": [
        {
          "internalType": "bool",
          "name": "",
          "type": "bool"
        }
      ],
      "stateMutability": "nonpayable",
      "type": "function"
    },
    {
      "inputs": [
        {
          "internalType": "address",
          "name": "spender",
          "type": "address"
        },
        {
          "internalType": "uint256",
          "name": "addedValue",
          "type": "uint256"
        }
      ],
      "name": "increaseAllowance",
      "outputs": [
        {
          "internalType": "bool",
          "name": "",
          "type": "bool"
        }
      ],
      "stateMutability": "nonpayable",
      "type": "function"
    },
    {
      "inputs": [],
      "name": "mint",
      "outputs": [],
      "stateMutability": "payable",
      "type": "function"
    },
    {
      "inputs": [],
      "name": "name",
      "outputs": [
        {
          "internalType": "string",
          "name": "",
          "type": "string"
        }
      ],
      "stateMutability": "view",
      "type": "function"
    },
    {
      "inputs": [],
      "name": "symbol",
      "outputs": [
        {
          "internalType": "string",
          "name": "",
          "type": "string"
        }
      ],
      "stateMutability": "view",
      "type": "function"
    },
    {
      "inputs": [],
      "name": "totalSupply",
      "outputs": [
        {
          "internalType": "uint256",
          "name": "",
          "type": "uint256"
        }
      ],
      "stateMutability": "view",
      "type": "function"
    },
    {
      "inputs": [
        {
          "internalType": "address",
          "name": "to",
          "type": "address"
        },
        {
          "internalType": "uint256",
          "name": "amount",
          "type": "uint256"
        }
      ],
      "name": "transfer",
      "outputs": [
        {
          "internalType": "bool",
          "name": "",
          "type": "bool"
        }
      ],
      "stateMutability": "nonpayable",
      "type": "function"
    },
    {
      "inputs": [
        {
          "internalType": "address",
          "name": "from",
          "type": "address"
        },
        {
          "internalType": "address",
          "name": "to",
          "type": "address"
        },
        {
          "internalType": "uint256",
          "name": "amount",
          "type": "uint256"
        }
      ],
      "name": "transferFrom",
      "outputs": [
        {
          "internalType": "bool",
          "name": "",
          "type": "bool"
        }
      ],
      "stateMutability": "nonpayable",
      "type": "function"
    },
    {
      "inputs": [],
      "name": "withdraw",
      "outputs": [],
      "stateMutability": "nonpayable",
      "type": "function"
    }
  ],
  "bytecode": "0x60806040523480156200001157600080fd5b506040516200350a3803806200350a8339818101604052810190620000379190620003e5565b878781600390816200004a91906200072d565b5080600490816200005c91906200072d565b50505060016005819055506040518060c00160405280874262000080919062000843565b6fffffffffffffffffffffffffffffffff1681526020018642620000a5919062000843565b6fffffffffffffffffffffffffffffffff1681526020018563ffffffff1681526020018463ffffffff1681526020018363ffffffff1681526020018263ffffffff16815250600760008201518160000160006101000a8154816fffffffffffffffffffffffffffffffff02191690836fffffffffffffffffffffffffffffffff16021790555060208201518160000160106101000a8154816fffffffffffffffffffffffffffffffff02191690836fffffffffffffffffffffffffffffffff16021790555060408201518160010160006101000a81548163ffffffff021916908363ffffffff16021790555060608201518160010160046101000a81548163ffffffff021916908363ffffffff16021790555060808201518160010160086101000a81548163ffffffff021916908363ffffffff16021790555060a082015181600101600c6101000a81548163ffffffff021916908363ffffffff16021790555090505050505050505050506200087e565b6000604051905090565b600080fd5b600080fd5b600080fd5b600080fd5b6000601f19601f8301169050919050565b7f4e487b7100000000000000000000000000000000000000000000000000000000600052604160045260246000fd5b620002808262000235565b810181811067ffffffffffffffff82111715620002a257620002a162000246565b5b80604052505050565b6000620002b762000217565b9050620002c5828262000275565b919050565b600067ffffffffffffffff821115620002e857620002e762000246565b5b620002f38262000235565b9050602081019050919050565b60005b838110156200032057808201518184015260208101905062000303565b60008484015250505050565b6000620003436200033d84620002ca565b620002ab565b90508281526020810184848401111562000362576200036162000230565b5b6200036f84828562000300565b509392505050565b600082601f8301126200038f576200038e6200022b565b5b8151620003a18482602086016200032c565b91505092915050565b6000819050919050565b620003bf81620003aa565b8114620003cb57600080fd5b50565b600081519050620003df81620003b4565b92915050565b600080600080600080600080610100898b03121562000409576200040862000221565b5b600089015167ffffffffffffffff8111156200042a576200042962000226565b5b620004388b828c0162000377565b985050602089015167ffffffffffffffff8111156200045c576200045b62000226565b5b6200046a8b828c0162000377565b97505060406200047d8b828c01620003ce565b9650506060620004908b828c01620003ce565b9550506080620004a38b828c01620003ce565b94505060a0620004b68b828c01620003ce565b93505060c0620004c98b828c01620003ce565b92505060e0620004dc8b828c01620003ce565b9150509295985092959890939650565b600081519050919050565b7f4e487b7100000000000000000000000000000000000000000000000000000000600052602260045260246000fd5b600060028204905060018216806200053f57607f821691505b602082108103620005555762000554620004f7565b5b50919050565b60008190508160005260206000209050919050565b60006020601f8301049050919050565b600082821b905092915050565b600060088302620005bf7fffffffffffffffffffffffffffffffffffffffffffffffffffffffffffffffff8262000580565b620005cb868362000580565b95508019841693508086168417925050509392505050565b6000819050919050565b60006200060e620006086200060284620003aa565b620005e3565b620003aa565b9050919050565b6000819050919050565b6200062a83620005ed565b62000642620006398262000615565b8484546200058d565b825550505050565b600090565b620006596200064a565b620006668184846200061f565b505050565b5b818110156200068e57620006826000826200064f565b6001810190506200066c565b5050565b601f821115620006dd57620006a7816200055b565b620006b28462000570565b81016020851015620006c2578190505b620006da620006d18562000570565b8301826200066b565b50505b505050565b600082821c905092915050565b60006200070260001984600802620006e2565b1980831691505092915050565b60006200071d8383620006ef565b9150826002028217905092915050565b6200073882620004ec565b67ffffffffffffffff81111562000754576200075362000246565b5b62000760825462000526565b6200076d82828562000692565b600060209050601f831160018114620007a5576000841562000790578287015190505b6200079c85826200070f565b8655506200080c565b601f198416620007b5866200055b565b60005b82811015620007df57848901518255600182019150602085019450602081019050620007b8565b86831015620007ff5784890151620007fb601f891682620006ef565b8355505b6001600288020188555050505b505050505050565b7f4e487b7100000000000000000000000000000000000000000000000000000000600052601160045260246000fd5b60006200085082620003aa565b91506200085d83620003aa565b925082820190508082111562000878576200087762000814565b5b92915050565b612c7c806200088e6000396000f3fe60806040526004361061012a5760003560e01c806339509351116100ab57806396c0b7401161006f57806396c0b740146103ca578063a457c2d7146103f3578063a9059cbb14610430578063c884ef831461046d578063dd62ed3e146104aa578063df9fe199146104e75761012a565b806339509351146102e35780633ccfd60b1461032057806370a082311461033757806395d89b411461037457806396b157321461039f5761012a565b806315c43aaf116100f257806315c43aaf146101f557806318160ddd1461022557806323b872dd146102505780632ff2e9dc1461028d578063313ce567146102b85761012a565b80630344e4011461012f57806306c18a311461015857806306fdde0314610183578063095ea7b3146101ae5780631249c58b146101eb575b600080fd5b34801561013b57600080fd5b5061015660048036038101906101519190611b6a565b610510565b005b34801561016457600080fd5b5061016d610685565b60405161017a9190611c07565b60405180910390f35b34801561018f57600080fd5b5061019861069d565b6040516101a59190611ca1565b60405180910390f35b3480156101ba57600080fd5b506101d560048036038101906101d09190611cef565b61072f565b6040516101e29190611d4a565b60405180910390f35b6101f3610752565b005b34801561020157600080fd5b5061020a61091d565b60405161021c96959493929190611daf565b60405180910390f35b34801561023157600080fd5b5061023a6109bf565b6040516102479190611e1f565b60405180910390f35b34801561025c57600080fd5b5061027760048036038101906102729190611e3a565b6109c9565b6040516102849190611d4a565b60405180910390f35b34801561029957600080fd5b506102a26109f8565b6040516102af9190611e1f565b60405180910390f35b3480156102c457600080fd5b506102cd6109fe565b6040516102da9190611ea9565b60405180910390f35b3480156102ef57600080fd5b5061030a60048036038101906103059190611cef565b610a07565b6040516103179190611d4a565b60405180910390f35b34801561032c57600080fd5b50610335610a3e565b005b34801561034357600080fd5b5061035e60048036038101906103599190611ec4565b610bfe565b60405161036b9190611e1f565b60405180910390f35b34801561038057600080fd5b50610389610c46565b6040516103969190611ca1565b60405180910390f35b3480156103ab57600080fd5b506103b4610cd8565b6040516103c19190611e1f565b60405180910390f35b3480156103d657600080fd5b506103f160048036038101906103ec9190611ef1565b610cde565b005b3480156103ff57600080fd5b5061041a60048036038101906104159190611cef565b610e39565b6040516104279190611d4a565b60405180910390f35b34801561043c57600080fd5b5061045760048036038101906104529190611cef565b610eb0565b6040516104649190611d4a565b60405180910390f35b34801561047957600080fd5b50610494600480360381019061048f9190611ec4565b610ed3565b6040516104a19190611e1f565b60405180910390f35b3480156104b657600080fd5b506104d160048036038101906104cc9190611f3a565b610eeb565b6040516104de9190611e1f565b60405180910390f35b3480156104f357600080fd5b5061050e60048036038101906105099190611ef1565b610f72565b005b600760000160109054906101000a90046fffffffffffffffffffffffffffffffff166fffffffffffffffffffffffffffffffff164211610585576040517f08c379a000000000000000000000000000000000000000000000000000000000815260040161057c90611fc6565b60405180910390fd5b6105e2827f9d6a543537db099b2ec0d55c5184cba873ff675bd043de6deb472a93f631f07560001b6105b5611105565b846040516020016105c792919061204f565b6040516020818303038152906040528051906020012061110d565b610621576040517f08c379a0000000000000000000000000000000000000000000000000000000008152600401610618906120c7565b60405180910390fd5b61068161062c611105565b61271083612710600760010160049054906101000a900463ffffffff1663ffffffff1660095461065c9190612116565b6106669190612187565b6106709190612116565b61067a9190612187565b6002611124565b5050565b73b238041f497df2589cead300294f0f7f2993f25481565b6060600380546106ac906121e7565b80601f01602080910402602001604051908101604052809291908181526020018280546106d8906121e7565b80156107255780601f106106fa57610100808354040283529160200191610725565b820191906000526020600020905b81548152906001019060200180831161070857829003601f168201915b5050505050905090565b60008061073a611105565b90506107478185856112bc565b600191505092915050565b600760000160109054906101000a90046fffffffffffffffffffffffffffffffff166fffffffffffffffffffffffffffffffff164211156107c8576040517f08c379a00000000000000000000000000000000000000000000000000000000081526004016107bf90612264565b60405180910390fd5b60026005540361080d576040517f08c379a0000000000000000000000000000000000000000000000000000000008152600401610804906122d0565b60405180910390fd5b6002600581905550600760010160089054906101000a900463ffffffff1663ffffffff163411610872576040517f08c379a00000000000000000000000000000000000000000000000000000000081526004016108699061233c565b60405180910390fd5b6000600760010160089054906101000a900463ffffffff1663ffffffff163461089b9190612187565b90506108ae6108a8611105565b82611485565b80600960008282546108c0919061235c565b92505081905550806108d0611105565b73ffffffffffffffffffffffffffffffffffffffff167f30385c845b448a36257a6a1716e6ad2e1bc2cbe333cde1e69fe849ad6511adfe60405160405180910390a3506001600581905550565b60078060000160009054906101000a90046fffffffffffffffffffffffffffffffff16908060000160109054906101000a90046fffffffffffffffffffffffffffffffff16908060010160009054906101000a900463ffffffff16908060010160049054906101000a900463ffffffff16908060010160089054906101000a900463ffffffff169080600101600c9054906101000a900463ffffffff16905086565b6000600254905090565b6000806109d4611105565b90506109e18582856115e4565b6109ec858585611670565b60019150509392505050565b60095481565b6000600c905090565b600080610a12611105565b9050610a33818585610a248589610eeb565b610a2e919061235c565b6112bc565b600191505092915050565b600760000160109054906101000a90046fffffffffffffffffffffffffffffffff166fffffffffffffffffffffffffffffffff164211610ab3576040517f08c379a0000000000000000000000000000000000000000000000000000000008152600401610aaa90611fc6565b60405180910390fd5b73b238041f497df2589cead300294f0f7f2993f25473ffffffffffffffffffffffffffffffffffffffff16610ae6611105565b73ffffffffffffffffffffffffffffffffffffffff1614610b3c576040517f08c379a0000000000000000000000000000000000000000000000000000000008152600401610b33906123dc565b60405180910390fd5b6000610b46611105565b73ffffffffffffffffffffffffffffffffffffffff164761520890604051610b6d9061242d565b600060405180830381858888f193505050503d8060008114610bab576040519150601f19603f3d011682016040523d82523d6000602084013e610bb0565b606091505b505090506001151581151514610bfb576040517f08c379a0000000000000000000000000000000000000000000000000000000008152600401610bf29061248e565b60405180910390fd5b50565b60008060008373ffffffffffffffffffffffffffffffffffffffff1673ffffffffffffffffffffffffffffffffffffffff168152602001908152602001600020549050919050565b606060048054610c55906121e7565b80601f0160208091040260200160405190810160405280929190818152602001828054610c81906121e7565b8015610cce5780601f10610ca357610100808354040283529160200191610cce565b820191906000526020600020905b815481529060010190602001808311610cb157829003601f168201915b5050505050905090565b600a5481565b600760000160109054906101000a90046fffffffffffffffffffffffffffffffff166fffffffffffffffffffffffffffffffff164211610d53576040517f08c379a0000000000000000000000000000000000000000000000000000000008152600401610d4a90611fc6565b60405180910390fd5b610dae817f2a1ddf9c19223a65d463012d307e5dfb950fd5a8a76a8e0e8a7ed39fea3c711e60001b610d83611105565b604051602001610d9391906124ae565b6040516020818303038152906040528051906020012061110d565b610ded576040517f08c379a0000000000000000000000000000000000000000000000000000000008152600401610de490612515565b60405180910390fd5b610e36610df8611105565b620f4240600760010160009054906101000a900463ffffffff1663ffffffff16600954610e259190612116565b610e2f9190612187565b6004611124565b50565b600080610e44611105565b90506000610e528286610eeb565b905083811015610e97576040517f08c379a0000000000000000000000000000000000000000000000000000000008152600401610e8e906125a7565b60405180910390fd5b610ea482868684036112bc565b60019250505092915050565b600080610ebb611105565b9050610ec8818585611670565b600191505092915050565b60066020528060005260406000206000915090505481565b6000600160008473ffffffffffffffffffffffffffffffffffffffff1673ffffffffffffffffffffffffffffffffffffffff16815260200190815260200160002060008373ffffffffffffffffffffffffffffffffffffffff1673ffffffffffffffffffffffffffffffffffffffff16815260200190815260200160002054905092915050565b600760000160009054906101000a90046fffffffffffffffffffffffffffffffff166fffffffffffffffffffffffffffffffff16421115610fe8576040517f08c379a0000000000000000000000000000000000000000000000000000000008152600401610fdf90612613565b60405180910390fd5b611043817f2a1ddf9c19223a65d463012d307e5dfb950fd5a8a76a8e0e8a7ed39fea3c711e60001b611018611105565b60405160200161102891906124ae565b6040516020818303038152906040528051906020012061110d565b611082576040517f08c379a000000000000000000000000000000000000000000000000000000000815260040161107990612515565b60405180910390fd5b6007600101600c9054906101000a900463ffffffff1663ffffffff16600960008282546110af919061235c565b925050819055506111026110c1611105565b6110c96109fe565b600a6110d59190612766565b6007600101600c9054906101000a900463ffffffff1663ffffffff166110fb9190612116565b6001611124565b50565b600033905090565b60008261111a85846118ef565b1490509392505050565b600260055403611169576040517f08c379a0000000000000000000000000000000000000000000000000000000008152600401611160906122d0565b60405180910390fd5b6002600581905550600081600660008673ffffffffffffffffffffffffffffffffffffffff1673ffffffffffffffffffffffffffffffffffffffff1681526020019081526020016000205416146111f5576040517f08c379a00000000000000000000000000000000000000000000000000000000081526004016111ec906127fd565b60405180910390fd5b8060066000611202611105565b73ffffffffffffffffffffffffffffffffffffffff1673ffffffffffffffffffffffffffffffffffffffff16815260200190815260200160002060008282541792505081905550600a600081548092919061125c9061281d565b919050555061126b8383611485565b818373ffffffffffffffffffffffffffffffffffffffff167fd8138f8a3f377c5259ca548e70e4c2de94f129f5a11036a15b69513cba2b426a60405160405180910390a36001600581905550505050565b600073ffffffffffffffffffffffffffffffffffffffff168373ffffffffffffffffffffffffffffffffffffffff160361132b576040517f08c379a0000000000000000000000000000000000000000000000000000000008152600401611322906128d7565b60405180910390fd5b600073ffffffffffffffffffffffffffffffffffffffff168273ffffffffffffffffffffffffffffffffffffffff160361139a576040517f08c379a000000000000000000000000000000000000000000000000000000000815260040161139190612969565b60405180910390fd5b80600160008573ffffffffffffffffffffffffffffffffffffffff1673ffffffffffffffffffffffffffffffffffffffff16815260200190815260200160002060008473ffffffffffffffffffffffffffffffffffffffff1673ffffffffffffffffffffffffffffffffffffffff168152602001908152602001600020819055508173ffffffffffffffffffffffffffffffffffffffff168373ffffffffffffffffffffffffffffffffffffffff167f8c5be1e5ebec7d5bd14f71427d1e84f3dd0314c0f7b2291e5b200ac8c7c3b925836040516114789190611e1f565b60405180910390a3505050565b600073ffffffffffffffffffffffffffffffffffffffff168273ffffffffffffffffffffffffffffffffffffffff16036114f4576040517f08c379a00000000000000000000000000000000000000000000000000000000081526004016114eb906129d5565b60405180910390fd5b61150060008383611945565b8060026000828254611512919061235c565b92505081905550806000808473ffffffffffffffffffffffffffffffffffffffff1673ffffffffffffffffffffffffffffffffffffffff1681526020019081526020016000206000828254611567919061235c565b925050819055508173ffffffffffffffffffffffffffffffffffffffff16600073ffffffffffffffffffffffffffffffffffffffff167fddf252ad1be2c89b69c2b068fc378daa952ba7f163c4a11628f55a4df523b3ef836040516115cc9190611e1f565b60405180910390a36115e06000838361194a565b5050565b60006115f08484610eeb565b90507fffffffffffffffffffffffffffffffffffffffffffffffffffffffffffffffff811461166a578181101561165c576040517f08c379a000000000000000000000000000000000000000000000000000000000815260040161165390612a41565b60405180910390fd5b61166984848484036112bc565b5b50505050565b600073ffffffffffffffffffffffffffffffffffffffff168373ffffffffffffffffffffffffffffffffffffffff16036116df576040517f08c379a00000000000000000000000000000000000000000000000000000000081526004016116d690612ad3565b60405180910390fd5b600073ffffffffffffffffffffffffffffffffffffffff168273ffffffffffffffffffffffffffffffffffffffff160361174e576040517f08c379a000000000000000000000000000000000000000000000000000000000815260040161174590612b65565b60405180910390fd5b611759838383611945565b60008060008573ffffffffffffffffffffffffffffffffffffffff1673ffffffffffffffffffffffffffffffffffffffff168152602001908152602001600020549050818110156117df576040517f08c379a00000000000000000000000000000000000000000000000000000000081526004016117d690612bf7565b60405180910390fd5b8181036000808673ffffffffffffffffffffffffffffffffffffffff1673ffffffffffffffffffffffffffffffffffffffff16815260200190815260200160002081905550816000808573ffffffffffffffffffffffffffffffffffffffff1673ffffffffffffffffffffffffffffffffffffffff1681526020019081526020016000206000828254611872919061235c565b925050819055508273ffffffffffffffffffffffffffffffffffffffff168473ffffffffffffffffffffffffffffffffffffffff167fddf252ad1be2c89b69c2b068fc378daa952ba7f163c4a11628f55a4df523b3ef846040516118d69190611e1f565b60405180910390a36118e984848461194a565b50505050565b60008082905060005b845181101561193a576119258286838151811061191857611917612c17565b5b602002602001015161194f565b915080806119329061281d565b9150506118f8565b508091505092915050565b505050565b505050565b600081831061196757611962828461197a565b611972565b611971838361197a565b5b905092915050565b600082600052816020526040600020905092915050565b6000604051905090565b600080fd5b600080fd5b600080fd5b6000601f19601f8301169050919050565b7f4e487b7100000000000000000000000000000000000000000000000000000000600052604160045260246000fd5b6119f3826119aa565b810181811067ffffffffffffffff82111715611a1257611a116119bb565b5b80604052505050565b6000611a25611991565b9050611a3182826119ea565b919050565b600067ffffffffffffffff821115611a5157611a506119bb565b5b602082029050602081019050919050565b600080fd5b6000819050919050565b611a7a81611a67565b8114611a8557600080fd5b50565b600081359050611a9781611a71565b92915050565b6000611ab0611aab84611a36565b611a1b565b90508083825260208201905060208402830185811115611ad357611ad2611a62565b5b835b81811015611afc5780611ae88882611a88565b845260208401935050602081019050611ad5565b5050509392505050565b600082601f830112611b1b57611b1a6119a5565b5b8135611b2b848260208601611a9d565b91505092915050565b6000819050919050565b611b4781611b34565b8114611b5257600080fd5b50565b600081359050611b6481611b3e565b92915050565b60008060408385031215611b8157611b8061199b565b5b600083013567ffffffffffffffff811115611b9f57611b9e6119a0565b5b611bab85828601611b06565b9250506020611bbc85828601611b55565b9150509250929050565b600073ffffffffffffffffffffffffffffffffffffffff82169050919050565b6000611bf182611bc6565b9050919050565b611c0181611be6565b82525050565b6000602082019050611c1c6000830184611bf8565b92915050565b600081519050919050565b600082825260208201905092915050565b60005b83811015611c5c578082015181840152602081019050611c41565b60008484015250505050565b6000611c7382611c22565b611c7d8185611c2d565b9350611c8d818560208601611c3e565b611c96816119aa565b840191505092915050565b60006020820190508181036000830152611cbb8184611c68565b905092915050565b611ccc81611be6565b8114611cd757600080fd5b50565b600081359050611ce981611cc3565b92915050565b60008060408385031215611d0657611d0561199b565b5b6000611d1485828601611cda565b9250506020611d2585828601611b55565b9150509250929050565b60008115159050919050565b611d4481611d2f565b82525050565b6000602082019050611d5f6000830184611d3b565b92915050565b60006fffffffffffffffffffffffffffffffff82169050919050565b611d8a81611d65565b82525050565b600063ffffffff82169050919050565b611da981611d90565b82525050565b600060c082019050611dc46000830189611d81565b611dd16020830188611d81565b611dde6040830187611da0565b611deb6060830186611da0565b611df86080830185611da0565b611e0560a0830184611da0565b979650505050505050565b611e1981611b34565b82525050565b6000602082019050611e346000830184611e10565b92915050565b600080600060608486031215611e5357611e5261199b565b5b6000611e6186828701611cda565b9350506020611e7286828701611cda565b9250506040611e8386828701611b55565b9150509250925092565b600060ff82169050919050565b611ea381611e8d565b82525050565b6000602082019050611ebe6000830184611e9a565b92915050565b600060208284031215611eda57611ed961199b565b5b6000611ee884828501611cda565b91505092915050565b600060208284031215611f0757611f0661199b565b5b600082013567ffffffffffffffff811115611f2557611f246119a0565b5b611f3184828501611b06565b91505092915050565b60008060408385031215611f5157611f5061199b565b5b6000611f5f85828601611cda565b9250506020611f7085828601611cda565b9150509250929050565b7f4d494e545f54494d45494e000000000000000000000000000000000000000000600082015250565b6000611fb0600b83611c2d565b9150611fbb82611f7a565b602082019050919050565b60006020820190508181036000830152611fdf81611fa3565b9050919050565b60008160601b9050919050565b6000611ffe82611fe6565b9050919050565b600061201082611ff3565b9050919050565b61202861202382611be6565b612005565b82525050565b6000819050919050565b61204961204482611b34565b61202e565b82525050565b600061205b8285612017565b60148201915061206b8284612038565b6020820191508190509392505050565b7f4e4f545f434c41494d41424c455f414444525f50455243454e54000000000000600082015250565b60006120b1601a83611c2d565b91506120bc8261207b565b602082019050919050565b600060208201905081810360008301526120e0816120a4565b9050919050565b7f4e487b7100000000000000000000000000000000000000000000000000000000600052601160045260246000fd5b600061212182611b34565b915061212c83611b34565b925082820261213a81611b34565b91508282048414831517612151576121506120e7565b5b5092915050565b7f4e487b7100000000000000000000000000000000000000000000000000000000600052601260045260246000fd5b600061219282611b34565b915061219d83611b34565b9250826121ad576121ac612158565b5b828204905092915050565b7f4e487b7100000000000000000000000000000000000000000000000000000000600052602260045260246000fd5b600060028204905060018216806121ff57607f821691505b602082108103612212576122116121b8565b5b50919050565b7f4d494e545f54494d454f55540000000000000000000000000000000000000000600082015250565b600061224e600c83611c2d565b915061225982612218565b602082019050919050565b6000602082019050818103600083015261227d81612241565b9050919050565b7f5265656e7472616e637947756172643a207265656e7472616e742063616c6c00600082015250565b60006122ba601f83611c2d565b91506122c582612284565b602082019050919050565b600060208201905081810360008301526122e9816122ad565b9050919050565b7f41545f4c454153545f315f50494e550000000000000000000000000000000000600082015250565b6000612326600f83611c2d565b9150612331826122f0565b602082019050919050565b6000602082019050818103600083015261235581612319565b9050919050565b600061236782611b34565b915061237283611b34565b925082820190508082111561238a576123896120e7565b5b92915050565b7f4e4f545f4f574e45520000000000000000000000000000000000000000000000600082015250565b60006123c6600983611c2d565b91506123d182612390565b602082019050919050565b600060208201905081810360008301526123f5816123b9565b9050919050565b600081905092915050565b50565b60006124176000836123fc565b915061242282612407565b600082019050919050565b60006124388261240a565b9150819050919050565b7f4641494c45445f57495448445241570000000000000000000000000000000000600082015250565b6000612478600f83611c2d565b915061248382612442565b602082019050919050565b600060208201905081810360008301526124a78161246b565b9050919050565b60006124ba8284612017565b60148201915081905092915050565b7f4e4f545f434c41494d41424c455f414444520000000000000000000000000000600082015250565b60006124ff601283611c2d565b915061250a826124c9565b602082019050919050565b6000602082019050818103600083015261252e816124f2565b9050919050565b7f45524332303a2064656372656173656420616c6c6f77616e63652062656c6f7760008201527f207a65726f000000000000000000000000000000000000000000000000000000602082015250565b6000612591602583611c2d565b915061259c82612535565b604082019050919050565b600060208201905081810360008301526125c081612584565b9050919050565b7f41495244524f505f54494d454f55540000000000000000000000000000000000600082015250565b60006125fd600f83611c2d565b9150612608826125c7565b602082019050919050565b6000602082019050818103600083015261262c816125f0565b9050919050565b60008160011c9050919050565b6000808291508390505b600185111561268a57808604811115612666576126656120e7565b5b60018516156126755780820291505b808102905061268385612633565b945061264a565b94509492505050565b6000826126a3576001905061275f565b816126b1576000905061275f565b81600181146126c757600281146126d157612700565b600191505061275f565b60ff8411156126e3576126e26120e7565b5b8360020a9150848211156126fa576126f96120e7565b5b5061275f565b5060208310610133831016604e8410600b84101617156127355782820a9050838111156127305761272f6120e7565b5b61275f565b6127428484846001612640565b92509050818404811115612759576127586120e7565b5b81810290505b9392505050565b600061277182611b34565b915061277c83611e8d565b92506127a97fffffffffffffffffffffffffffffffffffffffffffffffffffffffffffffffff8484612693565b905092915050565b7f414c52454144595f434c41494d45440000000000000000000000000000000000600082015250565b60006127e7600f83611c2d565b91506127f2826127b1565b602082019050919050565b60006020820190508181036000830152612816816127da565b9050919050565b600061282882611b34565b91507fffffffffffffffffffffffffffffffffffffffffffffffffffffffffffffffff820361285a576128596120e7565b5b600182019050919050565b7f45524332303a20617070726f76652066726f6d20746865207a65726f2061646460008201527f7265737300000000000000000000000000000000000000000000000000000000602082015250565b60006128c1602483611c2d565b91506128cc82612865565b604082019050919050565b600060208201905081810360008301526128f0816128b4565b9050919050565b7f45524332303a20617070726f766520746f20746865207a65726f20616464726560008201527f7373000000000000000000000000000000000000000000000000000000000000602082015250565b6000612953602283611c2d565b915061295e826128f7565b604082019050919050565b6000602082019050818103600083015261298281612946565b9050919050565b7f45524332303a206d696e7420746f20746865207a65726f206164647265737300600082015250565b60006129bf601f83611c2d565b91506129ca82612989565b602082019050919050565b600060208201905081810360008301526129ee816129b2565b9050919050565b7f45524332303a20696e73756666696369656e7420616c6c6f77616e6365000000600082015250565b6000612a2b601d83611c2d565b9150612a36826129f5565b602082019050919050565b60006020820190508181036000830152612a5a81612a1e565b9050919050565b7f45524332303a207472616e736665722066726f6d20746865207a65726f20616460008201527f6472657373000000000000000000000000000000000000000000000000000000602082015250565b6000612abd602583611c2d565b9150612ac882612a61565b604082019050919050565b60006020820190508181036000830152612aec81612ab0565b9050919050565b7f45524332303a207472616e7366657220746f20746865207a65726f206164647260008201527f6573730000000000000000000000000000000000000000000000000000000000602082015250565b6000612b4f602383611c2d565b9150612b5a82612af3565b604082019050919050565b60006020820190508181036000830152612b7e81612b42565b9050919050565b7f45524332303a207472616e7366657220616d6f756e742065786365656473206260008201527f616c616e63650000000000000000000000000000000000000000000000000000602082015250565b6000612be1602683611c2d565b9150612bec82612b85565b604082019050919050565b60006020820190508181036000830152612c1081612bd4565b9050919050565b7f4e487b7100000000000000000000000000000000000000000000000000000000600052603260045260246000fdfea2646970667358221220bf89477926446d097d9c38b63a53707b45d3afe1322e29c6038b75540499626964736f6c63430008110033",
  "linkReferences": {},
  "deployedLinkReferences": {}
}